:020000040800F2
:10000000800D002021020008ED040008E50400082E
:10001000E9040008D3020008690800080000000095
:10002000000000000000000000000000890100083E
:10003000D702000800000000CD010008ED0600080E
:100040003B0200083B0200083B0200083B0200089C
:100050003B0200083B0200083B0200083B0200088C
:100060003B0200083B0200083B0200083B0200087C
:100070003B0200083B0200083B0200083B0200086C
:100080003B0200083B0200083B0200083B0200085C
:100090003B0200083B0200083B0200083B0200084C
:1000A0003B0200083B0200083B0200083B0200083C
:1000B0003B0200083B0200083B0200083B0200082C
:1000C0003B0200083B0200083B0200083B0200081C
:1000D0003B0200083B0200083B0200083B0200080C
:1000E0003B0200083B0200083B02000800F002F857
:1000F00000F03AF80AA090E8000C82448344AAF188
:100100000107DA4501D100F02FF8AFF2090EBAE885
:100110000F0013F0010F18BFFB1A43F0010318473B
:10012000F810000018110000103A24BF78C878C1F8
:10013000FAD8520724BF30C830C144BF04680C60ED
:10014000704700000023002400250026103A28BF35
:1001500078C1FBD8520728BF30C148BF0B60704739
:100160001FB51FBD10B510BD00F07DF81146FFF79B
:10017000F7FF00F019FC00F09BF803B4FFF7F2FF63
:1001800003BC00F09FF80000224B19680868B0E833
:10019000F00F80F30988BFF36F8F4FF0000080F3FA
:1001A00011884EF00D0E70470000000006480068F0
:1001B000006880F3088862B661B6BFF34F8FBFF363
:1001C0006F8F00DF00BF00BF08ED00E0EFF3098094
:1001D000BFF36F8F0F4B1A6820E9F00F106008B55E
:1001E0004FF0BF0080F31188BFF34F8FBFF36F8FC5
:1001F00000F074FE4FF0000080F31188BDE8084065
:1002000019680868B0E8F00F80F30988BFF36F8FB2
:10021000704700BF1C000020EFF30580704700000E
:100220000948804709480047FEE7FEE7FEE7FEE78A
:10023000FEE7FEE7FEE7FEE7FEE7FEE704480549C6
:10024000054A064B70470000F5060008ED0000085F
:1002500080070020800D00208009002080090020F8
:10026000704770477047754600F028F8AE460500A5
:100270006946534620F00700854618B020B5FFF7C1
:10028000DDFFBDE820404FF000064FF000074FF0C3
:1002900000084FF0000B21F00701AC46ACE8C009A4
:1002A000ACE8C009ACE8C009ACE8C0098D467047AD
:1002B0000446AFF300802046FFF75FFF0048704719
:1002C0002007002001491820ABBEFEE726000200EF
:1002D000704700BFFEE7704710B500F003F800F06C
:1002E00035F810BD00B585B00121042000F010F9EB
:1002F0000420ADF8100018208DF8130003208DF8AD
:10030000120004A90F4800F060F80121480400F031
:10031000EFF84FF4E13000900020ADF80400ADF8A4
:100320000600ADF80800ADF80C000820ADF80A0092
:100330006946054800F028FA0121034800F00AFA4E
:1003400005B000BD000801400044004000B585B084
:100350000121042000F0DCF84FF40070ADF810002B
:1003600018208DF8130003208DF8120004A91248FC
:1003700000F02BF84FF400710F4800F0B1F80121A4
:10038000880300F0C5F84FF4E13000900020ADF88C
:100390000400ADF80600ADF80800ADF80C00082028
:1003A000ADF80A006946054800F0EEF9012103485E
:1003B00000F0D0F905B000BD000801400038014050
:1003C00010B5044600F070FA10BD2DE9F041024668
:1003D00000250026002000230024002791F803C0F8
:1003E0000CF00F0591F803C00CF0100CBCF1000FDD
:1003F00003D091F802C04CEA050591F800C0BCF1A9
:10040000000F31D0146800202BE04FF0010C0CFAE3
:1004100000F3B1F800C00CEA03069E4220D183002D
:100420004FF00F0C0CFA03F7BC4305FA03FC4CEA3F
:10043000040491F803C0BCF1280F06D14FF0010C61
:100440000CFA00FCC2F814C00AE091F803C0BCF139
:10045000480F05D14FF0010C0CFA00FCC2F810C097
:10046000401C0828D1D31460B1F800C0BCF1FF0FC4
:1004700034DD546800202EE000F1080C4FF0010834
:1004800008FA0CF3B1F800C00CEA03069E4221D131
:1004900083004FF00F0C0CFA03F7BC4305FA03FC82
:1004A0004CEA040491F803C0BCF1280F05D100F117
:1004B000080C08FA0CF8C2F8148091F803C0BCF1DB
:1004C000480F07D100F1080C4FF0010808FA0CF8AA
:1004D000C2F81080401C0828CED35460BDE8F081DB
:1004E0000161704700BFFEE700BFFEE770470000F4
:1004F00029B1064AD2690243044BDA6104E0034A97
:10050000D2698243014BDA6170470000001002405B
:1005100029B1064A92690243044B9A6104E0034AF6
:1005200092698243014B9A617047000000100240BB
:1005300030B500210022002400232D4D6D6805F008
:100540000C0121B1042905D0082923D105E0294D4A
:10055000056022E0274D05601FE0254D6D6805F41C
:100560007012234D6D6805F48034022505EB92422C
:100570001CB9214D554305600BE01D4D6D6805F418
:1005800000351DB11C4D5543056002E0194D554322
:10059000056002E0174D056000BF00BF144D6D6897
:1005A00005F0F0010909154D6B5C0568DD404560FB
:1005B0000F4D6D6805F4E061090A104D6B5C4568EC
:1005C000DD4085600A4D6D6805F46051C90A0B4D28
:1005D0006B5C4568DD40C560054D6D6805F44041C4
:1005E000890B074D6B5CC568B5FBF3F5056130BD44
:1005F0000010024000127A0000093D0000000020B7
:100600001000002010B500F001F810BD0CB500205E
:10061000019000903348006840F480303149086010
:1006200000BF3048006800F4003000900198401C82
:100630000190009818B90198B0F5A06FF1D1294840
:10064000006800F4003010B10120009001E00020AB
:1006500000900098012843D12348006840F0100022
:10066000214908600846006820F003000860084639
:10067000006840F0020008601A4840681949486064
:100680000846406848600846406840F4806048601A
:100690000846406820F47C1048600846406840F4F2
:1006A000E81048600846006840F08070086000BFAD
:1006B0000C48006800F000700028F9D00948406834
:1006C00020F00300074948600846406840F00200F7
:1006D000486000BF0348406800F00C000828F9D1CA
:1006E0000CBD0000001002400020024010B500F0D8
:1006F0003FFC10BD10B51348006840F001001149DF
:10070000086008464068104908400E49486008469D
:1007100000680E4908400B4908600846006820F44C
:10072000802008600846406820F4FE0048604FF4CE
:100730001F008860FFF766FF4FF000600449086003
:1007400010BD0000001002400000FFF8FFFFF6FEA1
:1007500008ED00E021B1828942F40052828104E078
:1007600082894DF6FF731A4082817047024600204D
:10077000B1F5007F00D100BF13880B400BB1012001
:1007800000E00020704700002DE9F04786B00546E4
:100790000E460024A24600BFA1460027B08900B142
:1007A00000BF2F462C8A4CF6FF700440F0880443AB
:1007B0002C82AC894EF6F3100440B088318908438E
:1007C000718908430443AC81AC8A4FF6FF40044072
:1007D000B0890443AC8201A8FFF7AAFE1F488742F4
:1007E00002D1DDF810A001E0DDF80CA0A88900F42A
:1007F000004040B10AEBCA0000EB0A103168490022
:10080000B0FBF1F807E00AEBCA0000EB0A10316810
:100810008900B0FBF1F86420B8FBF0F00401200976
:10082000642101FB1089A88900F4004040B1322006
:1008300000EBC900B0FBF1F000F00700044308E052
:10084000322000EB09106421B0FBF1F000F00F0042
:1008500004432C8106B0BDE8F08700000038014059
:10086000C1F308028280704700BFFEE710B504465E
:1008700021460548FFF7F4FF00BF80210248FFF73B
:1008800075FF0028F9D010BD0044004070B5044643
:10089000002504E0605DFFF7E9FF681CC5B2605DFC
:1008A0000028F7D170BD000016A0FFF7EFFF4FF44E
:1008B0007A7000F069F816A0FFF7E8FF4FF47A604D
:1008C00000F062F81CA0FFF7E1FF4FF47A6000F03F
:1008D0005BF824A0FFF7DAFF4FF47A7000F054F8C9
:1008E00024A0FFF7D3FF4FF4FA6000F04DF807E0C3
:1008F00024480068FFF7CAFF4FF47A7000F044F80C
:10090000F6E7000041542B5253540D0A000000003A
:1009100041542B43574A41503D224F50504F20469F
:10092000696E642058222C22383934303039333300
:1009300038220D0A0000000041542B434950535403
:100940004152543D22544350222C223139322E310F
:1009500036382E3139332E323435222C3830383077
:100960000D0A000041542B4349504D4F44453D3141
:100970000D0A000041542B43495053454E440D0A83
:100980000000000018000020002107E042F6E061AE
:1009900000BF0A00A1F1010399B2FAD10200A0F14F
:1009A000010398B2F2D170470EB5FFF795FC00F045
:1009B000F7F90B480B4904220023CDE900210290EE
:1009C000802209A10C4800F0EDFA0C49086000F003
:1009D000F9F90A48006808B100F032FA00BFFEE7F2
:1009E0007402002074000020455350383236365FC0
:1009F0005461736B00000000C10300081400002064
:100A000010B5044600F0CCF923480068401C224988
:100A100008602248006840B9204804600846006821
:100A200001280DD100F0E0F80AE01D48006838B94F
:100A30001A480068C06AE16A884201D81748046011
:100A400018480068401C1749086094F82C100120D1
:100A5000884015490968084313490860E16A01EBB9
:100A60008101124A02EB8100211D00F08DF900F096
:100A7000A9F90B48006868B108480068C06AE16AD3
:100A8000884207D24FF0805009490860BFF34F8F6A
:100A9000BFF36F8F10BD00002C0000201C00002051
:100AA00038000020480000203400002058060020B4
:100AB00004ED00E070B523E000F008FA1348006888
:100AC00008B9012000E00020054600F021FBBDB977
:100AD00000F066F90D48C068C468201D00F024F9D4
:100AE0000B480068401E0A4908600A480068401E1A
:100AF0000849086000F066F9204600F00DF800BFD4
:100B0000044800680028D7D170BD0000F806002016
:100B10002C0000202800002010B5044694F849005D
:100B200030B9206B00F05EF9204600F05BF906E07A
:100B300094F84900012802D1204600F053F910BD75
:100B400000BFFFF7B7FF064800680128F9D94FF04A
:100B5000805004490860BFF34F8FBFF36F8FF0E7F9
:100B60005806002004ED00E02DE9FF5F80460E46A8
:100B70009146DDE90E7A109CA9F10100216B01EB91
:100B8000800B2BF0070B002507E0715D04F13400AA
:100B90004155705D00B902E06D1C102DF5D300BF0A
:100BA000002143200155052F00D30427E762201DB3
:100BB00000F0E7F804F1180000F0E3F82461C7F151
:100BC0000500A06164620020606484F8480041462A
:100BD0005846039A00F096F82060BAF1000F01D051
:100BE000CAF80040BDE8FF9F10B5002407E004EB01
:100BF00084010F4A02EB810000F0B6F8641C052C5A
:100C0000F5D30C4800F0B0F80B4800F0ADF80B48F5
:100C100000F0AAF80A4800F0A7F80A4800F0A4F883
:100C200004480949086004480849086010BD0000EC
:100C300058060020BC060020D0060020E406002054
:100C4000F80600200C0700202000002024000020CF
:100C500010B50146164800E0006803688B42FBD3DC
:100C60000246436813448B4204D143684C682344D2
:100C7000436001460A464B6813440468A34211D1FD
:100C80000C4C03682468A34208D04B68046864686D
:100C900023444B6003681B680B6005E0054B1B6831
:100CA0000B6001E003680B60884200D0016010BD5A
:100CB0005C000020640000200A490968096809B93D
:100CC000012100E0002121B14FF0FF31064A1160FF
:100CD00006E004490968C968C868034A41681160A8
:100CE00070470000200000204C00002000BFBF2003
:100CF00080F31188BFF34F8FBFF36F8F00BF00BF2A
:100D0000FEE70000001F4FF080730360001F21F01A
:100D100001030360001F034B036014380260203896
:100D200070470000ED0C000801460A69D1E9013066
:100D30009860D1E9010358605068884201D1886801
:100D40005060002008611068401E106010687047F5
:100D5000034B0360034B0B6080231360704700005C
:100D6000C0050020C002002000F1080141604FF0E2
:100D7000FF31816000F10801C16001610021016063
:100D8000704700210161704742684A6093688B6038
:100D9000936859609160086103685B1C0360704749
:100DA00000BFBF2080F31188BFF34F8FBFF36F8F59
:100DB00000BF03480068401C0149086070470000FC
:100DC0005800002006480068401E05490860084693
:100DD000006820B9002080F3118800BF00BF704771
:100DE0005800002070B506463546D6B1083D2C4661
:100DF0000C4960680968084098B1206888B90949B9
:100E0000606809688843606000F060F806496068BF
:100E100009680844044908602046FFF719FF00F0FC
:100E200077F970BD700000206800002003484FF083
:100E3000E021486107200861704700003F19010068
:100E400010B586B000200590049003AA04A905A857
:100E5000FFF77EFF0022DDE904101346CDE90021F3
:100E6000029013A11448039A00F09CF813490860FB
:100E70000846006808B1012400E00024012C14D1C8
:100E800000BFBF2080F31188BFF34F8FBFF36F8F78
:100E900000BF4FF0FF300A4908600120094908608F
:100EA00000200949086000F049F806B010BD0000B4
:100EB00049444C4500000000410B00085000002050
:100EC0004C0000203800002030000020024800685C
:100ED000401C014908607047540000201248006817
:100EE00018B10120114908601DE000200F49086079
:100EF0000F480068B0FA80F0C0F11F0101EB8102D9
:100F00000C4B03EB820042685268426000F1080219
:100F10004368934202D14268526842604268D26894
:100F2000054B1A6000BF70475400002040000020AD
:100F300034000020580600201C00002010B50A488C
:100F4000006840F47F00084908600846006840F0E7
:100F50007F400860FFF76AFF002004490860FFF740
:100F600025F9002010BD000020ED00E05800002011
:100F700010B500BFBF2080F31188BFF34F8FBFF3C0
:100F80006F8F00BF00F036F818B14FF08050044961
:100F9000086000BF002080F3118800BF10BD000072
:100FA00004ED00E02DE9F04F85B0074688469146F4
:100FB0009A46DDE90EB6109CACB1A6B125462E636B
:100FC000022085F84900002004A953464A46CDE98D
:100FD00000B1CDE9025041463846FFF7C5FD28462D
:100FE000FFF70EFD01E000200490049805B0BDE875
:100FF000F08F00002DE9F04100273A4800680028F2
:1010000063D139480068451C374805608DB93748B9
:10101000D0F8008036480068344908603448C0F889
:10102000008034480068401C32490860FFF744FEE5
:1010300000BF3148006885423BD300BF2B480068A1
:10104000006808B9012000E0002020B14FF0FF3017
:10105000294908602CE025480068C068C4686668B3
:10106000B54202D22448066022E0201DFFF75CFE54
:10107000A06A18B104F11800FFF756FE94F82C107E
:10108000012088401D49096808431C490860E16A3D
:1010900001EB81011A4A02EB8100211DFFF774FE6A
:1010A0001849E06A0968C96A8842C7D30127C5E7B9
:1010B00000BF14480068C06A00EB8000104951F876
:1010C0002000012800D9012704E00F480068401CD7
:1010D0000D4908600D48006800B101273846BDE899
:1010E000F08100005400002030000020200000208B
:1010F00024000020440000204C0000203400002088
:10110000580600201C0000203C0000204000002069
:1011100070B500240026FFF743FE2E480068401EED
:101120002C4908600846006800284FD12A4800680A
:1011300000284BD024E02948C068C46804F1180096
:10114000FFF7F2FD201DFFF7EFFD94F82C100120B2
:10115000884023490968084321490860E16A01EB96
:101160008101204A02EB8100211DFFF70DFE1E497F
:10117000E06A0968C96A884202D301201B490860F5
:101180001648006808B9012000E000200028D2D0ED
:101190000CB1FFF791FD1648056865B100BFFFF778
:1011A00029FF10B10120114908606D1E002DF6D1F4
:1011B00000200F4908600D48006838B1012630074B
:1011C0000C490860BFF34F8FBFF36F8FFFF7FAFD35
:1011D000304670BD540000202C000020E4060020A2
:1011E00034000020580600201C0000204000002091
:1011F0003C00002004ED00E0C8C3C4E3BFB4BFB4AA
:10120000CED2C3C7C8C8D1AAB5C4D7E9BACFBCBC6F
:10121000B0C9A3A10D0A0000381200080000002088
:101220007400000028010008AC12000874000020BF
:101230000C0D00004401000800000000010203043E
:101240000102030406070809020406080000000062
:10125000F81100080000000000000000000000007D
:10126000000000000000000000000000000000007E
:10127000000000000000000000000000000000006E
:10128000000000000000000000000000000000005E
:10129000AAAAAAAA000000000000000000000000A6
:0C12A00000000000000000000000000042
:04000005080000ED02
:00000001FF
